:100000000C947D190C94AE190C94AE190C94AE1985
:100010000C94AE190C94AE190C94AE190C94AE1944
:100020000C94AE190C94AE190C94AE190C94AE1934
:100030000C94AE190C94AE190C94AE190C94AE1924
:100040000C94AE190C94B5B60C94AE190C94AE1970
:100050000C94AE190C94AE190C9442A70C9462A5A2
:100060000C94AE190C9406990C94D0980C94AE197B
:100070000C94AE190C94AE190C94AE190C94AE19E4
:100080000C94AE190C94AE190C94AE190C94AE19D4
:100090000C94AE190C94AE190C94AE190C94AE19C4
:1000A0000C94AE190C94AE190C94AE190C94AE19B4
:1000B0000C94AE190C94AE190C94AE190C94AE19A4
:1000C0000C94AE190C94AE190C94AE190C94E897DC
:1000D0000C94B2970C94AE190C94AE190C94AE1902
:1000E0000C94AE19084AD73B3BCE016E84BCBFFDD1
:1000F000C12F3D6C74319ABD56833DDA3D00C77FF8
:1001000011BED9E4BB4C3E916BAAAABE0000008090
:100110003F05A84CCDB2D44EB93836A9020C50B91F
:10012000918688083CA6AAAA2ABE000000803F004B
:100130004E414E494E495459494E46CDCCCC3D0ACC
:10014000D7233C17B7D13877CC2B329595E6241FAF
:10015000B14F0A000020410000C84200401C462068
:10016000BCBE4CCA1B0E5AAEC59D7400407A10F33B
:100170005A00A0724E18090010A5D4E80000E876D5
:1001800048170000E40B54020000CA9A3B0000002C
:10019000E1F505000080969800000040420F000045
:1001A00000A08601000000102700000000E8030006
:1001B0000000006400000000000A000000000001D0
:1001C00000000000002C76D888DC674F0823DFC1D0
:1001D000DFAE59E1B1B796E5E3E453C63AE651998B
:1001E0007696E8E6C28426EB898C9B62ED407C6FB4
:1001F000FCEFBC9C9F40F2BAA56FA5F490055A2A6B
:10020000F75C936B6CF9676DC11BFCE0E40D47FE76
:10021000F520E6B500D0ED902E030094357705006B
:1002200080841E080000204E0A000000C80C3333F2
:1002300033330F986E12831141EF8D2114893BE601
:100240005516CFFEE6DB18D1844B381BF77C1D908A
:100250001DA4BBE424203284725E228100C9F124F3
:10026000ECA1E53D275A325F535445505F50494E4B
:10027000005A325F454E41424C455F50494E005A4C
:10028000325F4449525F50494E005A5F53544F50B9
:100290005F50494E005A5F535445505F50494E00DD
:1002A0005A5F4D494E5F50494E005A5F454E41429C
:1002B0004C455F50494E005A5F4449525F50494E89
:1002C00000595F53544F505F50494E00595F53548B
:1002D00045505F50494E00595F4D494E5F50494E61
:1002E00000595F454E41424C455F50494E00595FB1
:1002F0004449525F50494E00585F53544F505F502D
:10030000494E00585F535445505F50494E00585F66
:100310004D494E5F50494E00585F454E41424C4555
:100320005F50494E00585F4449525F50494E005358
:100330004552564F335F50494E00534552564F3247
:100340005F50494E00534552564F315F50494E0061
:10035000534552564F305F50494E0053445353005B
:100360004E454F504958454C5F50494E0052414D03
:1003700050535F44395F50494E0052414D50535FD6
:1003800044385F50494E0052414D50535F44313024
:100390005F50494E004D4F534645545F445F5049AE
:1003A0004E0054454D505F305F43535F50494E00FF
:1003B0004C45445F50494E004845415445525F42C8
:1003C00045445F50494E004845415445525F305FB7
:1003D00050494E0046414E315F50494E0046414E15
:1003E0005F50494E0045315F535445505F50494E70
:1003F0000045315F454E41424C455F50494E0045F6
:10040000315F4449525F50494E0045315F43535F6D
:1004100050494E0045305F535445505F50494E009F
:1004200045305F454E41424C455F50494E00453096
:100430005F4449525F50494E0045305F4155544F2B
:100440005F46414E5F50494E00455F4D5558325F03
:1004500050494E00455F4D5558315F50494E00455B
:100460005F4D5558305F50494E004156525F5353CF
:100470005F50494E004156525F53434B5F50494EC7
:10048000004156525F4D4F53495F50494E0041560F
:10049000525F4D49534F5F50494E0054454D505F98
:1004A0004245445F50494E0054454D505F315F50C6
:1004B000494E0054454D505F305F50494E0046490B
:1004C0004C57494454485F50494E005458443200F8
:1004D0005258443200545844300052584430004C72
:1004E0004556454C494E4700434F4D4D554E4943A7
:1004F0004154494F4E0044525952554E00455252B4
:100500004F525300494E464F004543484F0036373F
:1005100026033C3D380E2E303E1224221E1A1C1893
:100520000A074309070844000153544F50504544FB
:100530002E20005072696E7465722073746F707033
:1005400065642064756520746F206572726F7273C4
:100550002E2046697820746865206572726F72205B
:10056000616E6420757365204D39393920746F20B0
:10057000726573746172742E202854656D70657293
:1005800061747572652069732072657365742E20BD
:100590005365742069742061667465722072657396
:1005A00074617274696E67290A004E6F2043686532
:1005B000636B73756D2077697468206C696E652054
:1005C0006E756D6265722C204C617374204C696E7F
:1005D000653A2000636865636B73756D206D6973A0
:1005E0006D617463682C204C617374204C696E6576
:1005F0003A20004C696E65204E756D626572206907
:1006000073206E6F74204C617374204C696E65208A
:100610004E756D6265722B312C204C617374204CC9
:10062000696E653A20004D31313000536572696161
:100630006C20737461747573206D69736D6174637C
:10064000680A00776169740A002121204B494C4CEB
:100650002063617573656420627920746F6F206D0B
:1006600075636820696E6163746976652074696D6D
:1006700065202D2063757272656E7420636F6D6DD9
:10068000616E643A2000627573793A207061757307
:10069000656420666F7220696E7075740A006275F9
:1006A00073793A2070617573656420666F72207586
:1006B0007365720A00627573793A2070726F6365B0
:1006C0007373696E670A006563686F3A00457272FA
:1006D0006F723A004F4646004F4E002058002028C7
:1006E00064697361626C6564290A002028004142D4
:1006F0004C2041646A7573746D656E74205A005A9B
:1007000020466164653A20002028656E61626C6550
:1007100064290A0041626F76650053616D65205A55
:100720002061730042656C6F77004175746F2042E1
:100730006564204C6576656C696E673A2042494C69
:10074000494E45415200204E6F7A7A6C65290A0065
:10075000202620002D43656E746572002D46726F51
:100760006E74002D4261636B002028416C69676ED6
:10077000656420576974680020284D6964646C655D
:100780000020284C65667400202852696768740050
:1007900050726F6265204F66667365742058005012
:1007A000726F62653A20544F5543485F4D495F5020
:1007B000524F42450A004D616368696E6520547965
:1007C00070653A2043617274657369616E0A005DF9
:1007D0000A004578747261706F6C617465205B000B
:1007E00042696C696E656172204C6576656C696EF4
:1007F0006720477269643A0A00203A202E2E2E4E56
:100800006F77204F4E0A00202063757272656E74F8
:100810005F706F736974696F6E3D00203A204C659C
:1008200076656C696E67204F46460A002020637526
:100830007272656E745F706F736974696F6E3D007C
:10084000203A202E2E2E4E6F77204F46460A00204B
:100850002063757272656E745F706F736974696F0F
:100860006E3D00203A204C6576656C696E67204FBE
:100870004E0A00202063757272656E745F706F732C
:100880006974696F6E3D0072657365745F6265645B
:100890005F6C6576656C0A002F2F616374696F6EFB
:1008A0003A006E6F74696669636174696F6E2000E7
:1008B00070726F6D70745F00656E6400486F746570
:1008C0006E6420746F6F20636F6C640A00706175D2
:1008D00073656400506175736500726573756D654D
:1008E00064004469736D69737300526573756D6953
:1008F0006E670057616974696E6720666F72206861
:1009000065617475702E0A004C656176696E6720AA
:10091000473236003F5370656369666965642058E5
:100920002C5920636F6F7264696E617465206F75F6
:1009300074206F6620626F756E64732E0A003F2804
:10094000522965706561742076616C7565206E6FE3
:100950007420706C61757369626C653B206D757392
:1009600074206265206174206C6561737420312E7F
:100970000A003F2852296570656174206D75737493
:1009800020626520737065636966696564207768B5
:10099000656E206E6F74207573696E6720616E20BE
:1009A0004C43442E0A003F53706563696669656471
:1009B000206E6F7A7A6C652074656D7065726174F3
:1009C000757265206E6F7420706C61757369626CEE
:1009D000652E0A003F537065636966696564206629
:1009E000696C616D656E742073697A65206E6F74D1
:1009F00020706C61757369626C652E0A003F5370DC
:100A000065636966696564207072696D65206C65EF
:100A10006E677468206E6F7420706C6175736962A4
:100A20006C652E0A003F5072696D65206C656E67BB
:100A30007468206D757374206265207370656369D6
:100A400066696564207768656E206E6F74207573C3
:100A5000696E6720616E204C43442E0A003F53703C
:100A600065636966696564206E6F7A7A6C65207368
:100A7000697A65206E6F7420706C61757369626C41
:100A8000652E0A003F52657472616374696F6E204F
:100A90004D756C7469706C696572206D7573742026
:100AA0006265207370656369666965642E0A003F3C
:100AB0005370656369666965642052657472616329
:100AC00074696F6E204D756C7469706C6965722005
:100AD0006E6F7420706C61757369626C652E0A00AC
:100AE0003F537065636966696564206C61796572FE
:100AF00020686569676874206E6F7420706C61751A
:100B00007369626C652E0A0043292E0A003F5370F8
:100B100065636966696564206265642074656D70EB
:100B200065726174757265206E6F7420706C61758A
:100B30007369626C65202834302D0047323620738B
:100B400074617274696E672E2E2E0A004F46460A33
:100B500000466164652048656967687420004265E5
:100B600064204C6576656C696E6720004661696C2F
:100B7000656420746F20656E61626C6520426564F7
:100B8000204C6576656C696E670A00496E76616C0B
:100B90006964206D6573682E0A003E3E3E003C3C51
:100BA0003C004265642048656174696E672E2E2E94
:100BB000005761697420666F722062656420686501
:100BC0006174696E672E2E2E0A002900626564200A
:100BD000280050726568656174696E672000206343
:100BE0006F72726563746564205A3A004732392027
:100BF000756E636F72726563746564205A3A002083
:100C00003A203E2070726F62696E6720636F6D706C
:100C10006C6574650A00202063757272656E745F7E
:100C2000706F736974696F6E3D002E0A002F00505B
:100C3000726F62696E67206D65736820706F696E90
:100C4000742000202844525952554E290047323909
:100C5000204175746F20426564204C6576656C692F
:100C60006E67003F20284C2C522C462C4229206FC6
:100C70007574206F6620626F756E64732E0A002093
:100C80004200204600205200473239204C003F28C5
:100C900056296572626F7365206C6576656C206994
:100CA0006D706C61757369626C652028302D342914
:100CB0002E0A00426164205A2076616C75650A0034
:100CC0004E6F2062696C696E65617220677269643B
:100CD0000A00473238003E204175746F2D6C6576EE
:100CE000656C206E6F74206E65656465642C20737E
:100CF0006B69700A004732390046696E697368652E
:100D000064210A003A207A3A2000206F66200047CA
:100D10006F696E6720746F3A20580043570A0020AD
:100D20006469723A0020616E676C653A00537461C1
:100D30007274207261646975733A00506F736974DC
:100D4000696F6E696E67207468652070726F626586
:100D50002E2E2E0A003F4C656773206F66206D6F44
:100D600076656D656E7420696D706C61757369620E
:100D70006C652028302D3135292E0A003F20285857
:100D80002C5929206F7574206F6620626F756E6410
:100D9000732E0A0050726F6265206F7574206F6643
:100DA00020626F756E6473003F53616D706C6520D7
:100DB00073697A65206E6F7420706C6175736962F7
:100DC0006C652028342D3530292E0A004D3438200A
:100DD0005A2D50726F626520526570656174616250
:100DE000696C69747920546573740A003F28562928
:100DF0006572626F7365206C6576656C20696D70D5
:100E00006C61757369626C652028302D34292E0A57
:100E1000005374616E646172642044657669617424
:100E2000696F6E3A20002052616E67653A2000209B
:100E30004D61783A2000204D696E3A2000205369B8
:100E4000676D613A20004D65616E3A2000204400D4
:100E500020204D32303020530020284469736162D5
:100E60006C6564293A0046696C616D656E74207327
:100E7000657474696E67730020204D3230312058DC
:100E8000004D617820416363656C65726174696FC0
:100E90006E2028756E6974732F7332290020204DDF
:100EA0003230332058004D61782066656564726188
:100EB0007465732028756E6974732F73290020522E
:100EC0000020204D323034205000416363656C6552
:100ED000726174696F6E2028756E6974732F733236
:100EE000292028503C7072696E742D616363656CB3
:100EF0003E20523C726574726163742D6163636558
:100F00006C3E20543C74726176656C2D6163636540
:100F10006C3E2900204A0020540020530020204D20
:100F2000323035204200416476616E63656420286A
:100F3000423C6D696E5F7365676D656E745F746961
:100F40006D655F75733E20533C6D696E5F666565C8
:100F500064726174653E20543C6D696E5F747261A9
:100F600076656C5F66656564726174653E204A3CB7
:100F70006A756E635F6465763E29002044002049EF
:100F80000020204D333031205000486F74656E646E
:100F9000205049440020440020490020204D333097
:100FA00034205000426564205049440050574D3A67
:100FB00020202534640050574D3A20202534640009
:100FC00050574D3A20202534640050574D3A202088
:100FD0002534640050574D3A202025346400505782
:100FE0004D3A20202534640050574D3A20202534B6
:100FF000640050574D3A20202534640050574D3A34
:1010000020202534640050574D3A202025346400B8
:1010100050574D3A20202534640050574D3A202037
:101020002534640050574D3A202025346400505731
:101030004D3A20202534640050574D3A2020253465
:10104000640050574D3A2020253464003A20002097
:10105000202020434F4D002020206E6F6E2D737492
:10106000616E646172642050574D206D6F6465003D
:10107000202020636F6D7061726520696E746572E7
:101080007275707420656E61626C6564002020204A
:101090006F766572666C6F7720696E7465727275B3
:1010A000707420656E61626C6564003A20002020D7
:1010B000202054494D534B00423A2000202020204C
:1010C0005443435200413A200020202020544343FF
:1010D00052002020202043533A2000202020205777
:1010E000474D3A200050574D3A2020253464005097
:1010F000574D3A20202534640047004800000088FE
:10110000008A008C00B300B400000098009A009C94
:1011100000A800AA00AC0028012A012C01202020F0
:101120002054494D455200440045006E0080008126
:10113000006F00B000B1007000900091007100A03D
:1011400000A1007200200121017300206973206159
:101150006C736F207469656420746F2074686973A0
:101160002070696E0054494D45523143000A202ECB
:10117000002020002020506F72743A200020202090
:1011800000202020416E616C6F6720696E203D2039
:1011900025356C64003C756E757365642F756E6BD8
:1011A0006E6F776E3E002028412532642920200092
:1011B000253364200050494E3A20004F75747075F5
:1011C00074203D2000496E70757420203D20004140
:1011D0006E616C6F6720696E203D2025356C640060
:1011E00070726F7465637465642000202841253235
:1011F0006429202000253364200050494E3A200005
:10120000DA040001D5040101D0041101CB0410015E
:10121000BE043B00B3044300A80445009B04440003
:101220008E04320181043301750434016A043501EE
:101230005F04280154042A0149042C0139040701E0
:101240002E041C012004180114041A010A042C01A4
:10125000FF032201F1031E01E5032401DD0309015F
:10126000D4030701C7030A01B8030801B0030D0145
:10127000A20342019503070187030A017A030801CB
:101280006D030901600304015B03350150030B0189
:10129000450306013A0305012F0304012503370125
:1012A000180326010E03030103033601F8020301AC
:1012B000EE023D01E1023801D7020E01CC023C01F1
:1012C000C1020E01B7023001AA023E01A0021201C2
:1012D00095022E018A0212017F02220171021E0173
:1012E00065022401446F6E652E0A0050756C7369A7
:1012F0006E6720202000556E746F756368656420EA
:1013000000534552564F206E6F74207365742075DC
:10131000702E0A004D343320576169742043616C8C
:101320006C6564005761746368696E672070696EEC
:10133000730A0064697300656E0061626C65640A1B
:1013400000656E6473746F70206D6F6E69746F7278
:101350002000203B0020550020204D363033204C0B
:101360000046696C616D656E74206C6F61642F75E9
:101370006E6C6F61640020286D6D290020496E76C7
:10138000616C6964206578747275646572200047C9
:10139000322F47332062616420706172616D657421
:1013A0006572730A0047322F4733206261642070F0
:1013B0006172616D65746572730A00536C65657066
:1013C0002E2E2E005A2050726F6265205061737469
:1013D000204265640A005A2050726F626520506195
:1013E00073742042656400203A20686F6D655F7AEF
:1013F0005F736166656C790A0020206465737469A7
:101400006E6174696F6E3D00686F6D655F7A5F73C2
:101410006166656C79005261697365205A202862A3
:1014200065666F726520686F6D696E6729206279E5
:1014300020003E20686F6D696E67206E6F74206EAD
:1014400065656465642C20736B69700A00473238E7
:1014500000205A3A200020593A2000426564205862
:101460003A20004D65736820706F696E74206F7547
:1014700074206F662072616E67650A004D302053DC
:10148000746F70004D312053746F70004E6F204D9B
:101490006F76652E002569730025696D20256973B7
:1014A000002569682025696D202569730025696418
:1014B000202569682025696D2025697300256979D3
:1014C00020256964202569682025696D20256973B8
:1014D000006E6F74696669636174696F6E20005095
:1014E00072696E742074696D653A20006F6B006FCD
:1014F00066660009050405FD04F604E804DF0444FB
:10150000454255473A004D31313320530041727402
:10151000696C6C657279205369646577696E64657E
:1015200072205831202D204D6F6C69736520322E4A
:1015300034204F46462E002F2F003F4A206F7574EF
:10154000206F662072616E67652028302E30312052
:10155000746F20302E33290A003B200020204D617B
:10156000783A2000200020204D696E3A2000203B70
:10157000200020204D32313120530046523A0020C5
:10158000466C6F773A20004261627973746570200F
:101590005A0050726F6265204F6666736574205AF8
:1015A0000050726F6265204F6666736574205A0042
:1015B00064697300656E0043290A0061626C6564AA
:1015C00020286D696E2074656D702000436F6C6417
:1015D0002065787472756465732061726520004DB2
:1015E00034323120696E636F72726563742070618A
:1015F00072616D657465722075736167650A004D6F
:1016000065736820706F696E74206F7574206F66E3
:101610002072616E67650A004F6666736574732099
:101620004170706C69656400546F6F206661722050
:1016300066726F6D207265666572656E6365207097
:101640006F696E740A00454550524F4D204F4B0A4A
:1016500000290A0020746F20003F5A206F75742003
:101660006F662072616E6765202800290A00207469
:101670006F20003F59206F7574206F662072616E75
:10168000676520282D00290A0020746F20003F582C
:10169000206F7574206F662072616E676520282D3B
:1016A00000290A002E2E2E2800540020420020502F
:1016B000006F6B0020204D323036205800486F6D8F
:1016C00065206F666673657400446966663A20201B
:1016D000200046726F6D5374703A005374657070D9
:1016E00065723A00556E4C6576656C3A004C6576CD
:1016F000656C65643A005261773A20202020000A28
:101700004C6F676963616C3A00436F756E74204576
:101710003A004361703A007D002C7A3A002C793A05
:10172000007D2C6D61783A7B783A002C7A3A002C57
:10173000793A007D7D2C776F726B3A7B6D696E3ADA
:101740007B783A002C7A3A002C793A007D2C6D6136
:10175000783A7B783A002C7A3A002C793A00617218
:1017600065613A7B66756C6C3A7B6D696E3A7B7825
:101770003A004D4541545041434B00434F4F4C4577
:10178000525F54454D5045524154555245004348CF
:10179000414D4245525F54454D504552415455527A
:1017A0004500424142595354455050494E4700412B
:1017B000524353004D4F54494F4E5F4D4F44455394
:1017C00000544845524D414C5F50524F544543548C
:1017D000494F4E004C4F4E475F46494C454E414D98
:1017E00045004155544F5245504F52545F53445F4A
:1017F0005354415455530053445F57524954450084
:1018000052455045415400534443415244005052C4
:101810004F4D50545F535550504F525400484F5302
:10182000545F414354494F4E5F434F4D4D414E44E9
:101830005300454D455247454E43595F5041525321
:10184000455200434153455F4C494748545F42521B
:10185000494748544E45535300544F47474C455F02
:101860004C494748545300534F4654574152455FE3
:10187000504F574552004255494C445F50455243E2
:10188000454E54004C4556454C494E475F444154E3
:1018900041005A5F50524F42450052554E4F5554E9
:1018A000004155544F4C4556454C005052494E54FA
:1018B0005F4A4F420050524F4752455353004155E3
:1018C000544F5245504F52545F54454D500041556E
:1018D000544F5245504F52545F504F5300564F4C47
:1018E000554D455452494300454550524F4D0042D5
:1018F000494E4152595F46494C455F5452414E53FF
:101900004645520053455249414C5F584F4E5F582F
:101910004F4646004649524D574152455F4E414D54
:10192000453A4D61726C696E20322E302E392E325E
:1019300020284A616E202038203230323220313463
:101940003A35363A33392920534F555243455F4390
:101950004F44455F55524C3A6769746875622E630F
:101960006F6D2F4D61726C696E4669726D77617231
:10197000652F4D61726C696E2050524F544F434F2A
:101980004C5F56455253494F4E3A312E30204D410F
:101990004348494E455F545950453A417274696C09
:1019A0006C657279205369646577696E646572202D
:1019B0005831202D204D6F6C69736520322E3420F4
:1019C00045585452554445525F434F554E543A3151
:1019D00020555549443A63656465326132662D3459
:1019E0003161322D343734382D396231322D63353F
:1019F000356336326633363766660A00203B002090
:101A0000204D3835312058005A2D50726F626520B4
:101A10004F6666736574006F6B0A00526573656E7E
:101A2000643A200042656420436F6F6C696E672ED4
:101A30002E2E004265642048656174696E672E2E03
:101A40002E0023646566696E652044454641554C09
:101A5000545F0000626564004B6420004B69200005
:101A60004B702000504944204175746F74756E6549
:101A70002066696E697368656421205075742074EE
:101A80006865206C617374204B702C204B69206159
:101A90006E64204B6420636F6E7374616E74732088
:101AA00066726F6D2062656C6F7720696E746F204F
:101AB000436F6E66696775726174696F6E2E680A2E
:101AC00000504944204175746F74756E65206661DD
:101AD000696C6564212074696D656F75740A0050C6
:101AE0004944204175746F74756E65206661696C38
:101AF0006564212054656D7065726174757265202E
:101B0000746F6F20686967680A00204B643A200090
:101B1000204B693A2000204B703A200020436C6132
:101B20007373696320504944200A00204E6F206F70
:101B300076657273686F6F740A002054753A2000DE
:101B4000204B753A2000206D61783A2000206D69A5
:101B50006E3A200020643A200020626961733A20C6
:101B600000504944204175746F74756E652073741C
:101B70006172740A00504944204175746F74756E27
:101B800065206661696C6564212054656D706572BD
:101B9000617475726520746F6F20686967680A00E8
:101BA000504944204175746F74756E650050494406
:101BB000204175746F74756E65206661696C65642B
:101BC0002120426164206865617465722069640A3D
:101BD00000486F6D696E67204661696C6564006FCF
:101BE00070656E00545249474745524544003A20BB
:101BF000007A5F6D696E00795F6D696E00785F6D68
:101C0000696E005265706F7274696E6720656E64EC
:101C100073746F70207374617475730A0020453A91
:101C200000583A00203A2073796E635F706C616EE1
:101C30005F706F736974696F6E0A0020206375723C
:101C400072656E745F706F736974696F6E3D003E8C
:101C50002000646F5F626C6F636B696E675F6D6FAE
:101C600076655F746F0020746F6F206C6F6E6720F5
:101C7000657874727573696F6E2070726576656EC3
:101C80007465640A0020636F6C64206578747275F3
:101C900073696F6E2070726576656E7465640A0094
:101CA000486F6D652025732573257320466972730F
:101CB000740020706F736974696F6E5F7368696612
:101CC00074203D200020686F6D655F6F66667365E8
:101CD00074203D2000417869732000290A003C3CB3
:101CE0003C207365745F617869735F69735F6174C9
:101CF0005F686F6D652800203A200A002020637518
:101D00007272656E745F706F736974696F6E3D0097
:101D10005D203D20003E20686F6D655F6F666673D5
:101D200065745B002A2A2A205A20484F4D454420DA
:101D3000574954482050524F424520285A5F4D4938
:101D40004E5F50524F42455F555345535F5A5F4D6A
:101D5000494E5F454E4453544F505F50494E2920E1
:101D60002A2A2A0A3E2070726F62652E6F66667399
:101D700065742E7A203D2000000000C00000A0C045
:101D800000000000290A003E3E3E207365745F613A
:101D90007869735F69735F61745F686F6D65280050
:101DA0005761726E696E673A20486F6D696E672081
:101DB00042756D702044697669736F72203C2031E2
:101DC0000A00020204290A003C3C3C20686F6D6551
:101DD000617869732800203A203E204146544552DC
:101DE000207365745F617869735F69735F61745FA5
:101DF000686F6D650A00202063757272656E745F8E
:101E0000706F736974696F6E3D006D6D0A00526585
:101E10002D62756D703A20006D6D0A004D6F76650C
:101E200020417761793A20006D6D0A00486F6D6539
:101E300020466173743A20000000974300809D4360
:101E40000000C8430000A0400000A0400000004087
:101E5000290A003E3E3E20686F6D656178697328EF
:101E600000000000010000000100008000555555F1
:101E7000000000400033333300AAAA2A004992240C
:101E80000000002000C7711C0099991900D1451766
:101E900000555515003BB1130024491200111111D2
:101EA00000000010000F0F0F00E3380E0043790D03
:101EB00000CCCC0C00C3300C00E8A20B0064210B5A
:101EC00000AAAA0A00703D0A009DD80900427B09B9
:101ED0000092240900DCD30800888808001042081A
:101EE0000000000800F0C107008787070075500751
:101EF00000711C07003EEB0600A1BC0600699006BD
:101F00000066660600703E06006118060017F405BC
:101F10000074D105005BB00500B290050062720547
:101F2000005555050078390500B81E050005050562
:101F3000004EEC040087D40400A1BD040090A70467
:101F40000049920400C17D0400EE690400C75604F4
:101F500000444404005C32040008210400411004E1
:101F600000000004003FF00300F8E0030026D20365
:101F700000C3C30300CCB503003AA803000A9B03C7
:101F800000388E0300C08103009F750300D06903F1
:101F900000505E03001D53030034480300913D03CD
:101FA000003333030016290300381F03009715037D
:101FB00000300C0300030303000BFA020049F10296
:101FC00000BAE802005CE002002DD802002DD00229
:101FD0000059C80200B0C0020031B90200DAB102F3
:101FE00000AAAA0200A0A30200BC9C0200FA95026B
:101FF000005C8F0200DF88020082820200457C02C2
:10200000002776020027700200436A02007C640207
:1020100000D05E02003F590200C8530200FFFDFCE1
:10202000FAF8F6F4F2F0EEECEAE9E7E5E3E1E0DEF7
:10203000DCDAD9D7D5D4D2D0CFCDCBCAC8C7C5C3A7
:10204000C2C0BFBDBCBAB9B7B6B4B3B2B0AFADAC25
:10205000AAA9A8A6A5A4A2A1A09E9D9C9A9998977A
:1020600095949392908F8E8D8B8A898887868483AE
:102070008281807F7E7D7B7A7978777675747372C2
:1020800071706F6E6D6C6B6A6968676665646362B8
:1020900061605F5E5D5C5B5A5958585756555453A2
:1020A000525150504F4E4D4C4B4A4A494847464674
:1020B000454443424241403F3E3E3D3C3B3B3A3932
:1020C000383837363535343332323130302F2E2EE2
:1020D0002D2C2B2B2A292928272726252524232385
:1020E00022212120201F1E1E1D1C1C1B1B1A19191A
:1020F0001818171616151514131312121111100FA4
:102100000F0E0E0D0D0C0C0B0A0A09090808070723
:1021100006060505040403030202010000290A0063
:1021200050726F62653A3A646F5F7A5F7261697389
:102130006528006465706C6F793A2000203A205061
:10214000726F62653A3A7365745F6465706C6F793B
:1021500065640A00202063757272656E745F706F2B
:10216000736974696F6E3D00206D61783A00206D6F
:10217000696E3A00417869732000000096430000C0
:102180009B430000C843000000C00000A0C0000046
:10219000000053657474696E67732053746F7265C1
:1021A0006400290A002062797465733B20637263BE
:1021B000200053657474696E67732053746F726581
:1021C00064202800454550524F4D20496E6974697E
:1021D000616C697A65640A0048617264636F646562
:1021E000642044656661756C742053657474696E0F
:1021F0006773204C6F616465640A00203B204C6566
:1022000076656C696E67200020204D343230205393
:10221000004175746F20426564204C6576656C6979
:102220006E6700204A00202047323920572049009D
:1022300020204D3134392043203B20556E69747382
:1022400020696E2043656C736975730A0054656D6F
:10225000706572617475726520556E6974730020C3
:1022600020473231203B004C696E65617220556E0B
:1022700069747300454550524F4D20646174617319
:10228000697A65206572726F722E0A00290A002031
:1022900062797465733B2063726320002073746FEE
:1022A0007265642073657474696E677320726574F7
:1022B000726965766564202800202863616C637507
:1022C0006C6174656429210A0020213D2000454588
:1022D00050524F4D20435243206D69736D617463BA
:1022E00068202D202873746F7265642920002053A4
:1022F000697A653A2000496E6465783A20000000EA
:102300009643000096430000204200008C42F43DBA
:10231000A042F43DA04296E3C7430080D743D007D4
:102320000000D00700006400000010270000204DCE
:1023300061726C696E3D563835290A004545505228
:102340004F4D2076657273696F6E206D69736D6194
:102350007463682028454550524F4D3D0024F4D405
:102360003050C38E20C2A24017828B7011127A9116
:102370000D816CD90AA861E108C75866076151430D
:10238000061E4B5D05C145A7041A411104093D987D
:1023900003713931034036DB0265339102D4305486
:1023A00002802E1D02632CEE01752AC501B028A003
:1023B00001102781018F2564012B244B01E0223479
:1023C00001AC211F018D200D01801FFC00841EED3A
:1023D00000971DDF00B81CD200E61BC600201BBC06
:1023E00000641AB200B219A8000A19A0006A18996C
:1023F00000D117910040178B00B516840031167E6E
:1024000000B31579003A157300C7146F0058146AA9
:1024100000EE1366008813630025135E00C7125B8D
:10242000006C12570015125400C111510070114F69
:102430000021114B00D61049008D10470046104472
:102440000002104200C00F4000800F3E00420F3CCF
:1024500000060F3B00CB0E3800930E37005C0E35A4
:1024600000270E3400F30D3200C10D3100900D3005
:1024700000600D2E00320D2D00050D2C00D90C2B07
:1024800000AE0C2900850C29005C0C2700350C27B8
:10249000000E0C2600E80B2400C40B2400A00B2324
:1024A000007D0B23005A0B2100390B2100180B2053
:1024B00000F80A1F00D90A1E00BB0A1E009D0A1D53
:1024C00000800A1D00630A1C00470A1B002C0A1B1F
:1024D00000110A1A00F7091A00DD091900C40919C8
:1024E00000AB091900920917007B0918006309174E
:1024F000004C09160036091600200916000A0915B5
:1025000000F5081500E0081400CC081400B8081401
:1025100000A4081400900813007D0812006B081333
:102520000058081200460812003408110023081150
:10253000001208110001081100F0071000E0071058
:1025400000D0071000C0071000B0070F00A107104F
:102550000091070E0083070F0074070F0065070E38
:102560000057070E0049070E003B070D002E070E0F
:102570000020070D0013070D0006070D00F9060CDB
:1025800000ED060D00E0060C00D4060C00C8060C99
:1025900000BC060C00B0060C00A4060B0099060C4B
:1025A000008D060B0082060B0077060B006C060BF5
:1025B0000061060A0057060B004C060A0042060A94
:1025C0000038060A002E060A0024060A001A060A27
:1025D000001006090007060A00FD050900F40509B8
:1025E00000EB050900E2050900D9050900D005093D
:1025F00000C7050900BE050900B5050800AD0508BE
:1026000000A50509009C050800940508008C050834
:1026100000840508007C050800740508006C0507A7
:1026200000650508005D050700560508004E050712
:102630000047050700400508003805070031050779
:10264000002A050700230507001C050600160507DC
:10265000000F0507000805060002050700FB040639
:1026600000F5040700EE040600E8040600E2040793
:1026700000DB040600D5040600CF040600C90406EA
:1026800000C3040600BD040600B7040600B104053B
:1026900000AC040600A6040600A00405009B040686
:1026A0000095040500900406008A040500850405D1
:1026B00000800406007A0405007504050070040516
:1026C000006B04050066040500610405005C040558
:1026D0000057040500520405004D04050048040598
:1026E00000430405003E0404003A040500350405D7
:1026F00000300404002C0405002704040023040512
:10270000001E0404001A0404001604050011040449
:10271000000D04040009040500040404000004047E
:1027200000FC030400F8030400F4030400F00304B5
:1027300000EC030400E8030400E4030400E00304E5
:1027400000DC030400D8030400D4030400D0030415
:1027500000CC030400C8030300C503030024F404F1
:10276000D9201BC40C5C0E9804C4095F0265077174
:1027700001F405F900FB04B30048048700C10369B4
:10278000005803550003034500BE023A008402319D
:102790000053022A002902250004022000E4011C43
:1027A00000C8011900AF011700980114008401133B
:1027B00000710110006101100051010E0043010D74
:1027C0000036010B002B010B0020010B0015010945
:1027D000000C01090003010800FB000800F30008D9
:1027E00000EB000700E4000600DE000600D800064B
:1027F00000D2000600CC000500C7000500C200059D
:1028000000BD000400B9000400B5000400B10004DC
:1028100000AD000400A9000400A5000300A200030D
:10282000009F0004009B0003009800030095000235
:102830000093000300900003008D0002008B000352
:10284000008800020086000200840003008100026C
:10285000007F0002007D0002007B00020079000280
:10286000007700010076000200740002007200018F
:1028700000710002006F0002006D0001006C000298
:10288000006A0001006900020067000100660001A3
:1028900000650001006400020062000100610001A7
:1028A00000600001005F0002005D0001005C0001AB
:1028B000005B0001005A00010059000100580001AE
:1028C00000570001005600010055000100540001AE
:1028D00000530000005300010052000100510001AC
:1028E00000500001004F0001004E0000004E0001AA
:1028F000004D0001004C0001004B0000004B0001A6
:10290000004A0001004900010048000000480001A1
:10291000004700010046000000460001004500009D
:102920000045000100440001004300000043000195
:10293000004200000042000100410000004100018F
:1029400000400001003F0000003F0001003E000089
:10295000003E0001003D0000003D0001003C000081
:10296000003C0000003C0001003B0000003B000177
:10297000003A0000003A000100390000003900016F
:102980000038000000380000003800010037000067
:10299000003700010036000000360000003600015C
:1029A0000035000000350000003500010034000053
:1029B0000034000000340001003300000033000048
:1029C000003300010032000000320000003200013C
:1029D0000031000000310000003100010030000033
:1029E0000030000000300001002F0000002F000028
:1029F000002F0000002F0001002E0000002E00001C
:102A0000002E0001002D0000002D0000002D000010
:102A1000002D0001002C0000002C0000002C000004
:102A2000002C0001002B0000002B0000002B0000F8
:102A3000002B0001002A0000002A0000002A0000EC
:102A4000002A0001002900000029000000290000E0
:102A500000290000002900010028000000280000D3
:102A600000280000002800000028000100270000C6
:102A700000270000002700000027000000270001B9
:102A800000260000002600000026000000260000AE
:102A900000260001002500000025000000250000A0
:102AA0000025000000250000002500010024000092
:102AB0000024000000240000002400000024000185
:102AC000002300000023000000230000002300007A
:102AD000002300000023000000230001002200006A
:102AE000002200000022000000220000002200005E
:102AF0000022000100210000002100000021000050
:102B00000021000000210000002100000021000140
:102B10000020000000200000002000000020000035
:102B20000020000000200000002000000020000124
:102B3000001F0000001F0000001F0000001F000019
:102B4000001F0000001F0000001F0001001E000009
:102B5000001E0000001E0000001E000000393000B2
:102B6000003325000087190000B00F0000DB0800CB
:102B700000BD040000740200003F010000205A3A2A
:102B80000020593A0020436F756E7420583A0000B7
:102B90004500626564002C2073797374656D207341
:102BA000746F7070656421204865617465725F4957
:102BB000443A200048656174696E67204661696C1B
:102BC00065640048656174696E67206661696C655B
:102BD00064004D3131322053687574646F776E0034
:102BE0004572723A204D415854454D50004D415860
:102BF00054454D502074726967676572656400457D
:102C000072723A204D494E54454D50004D494E5434
:102C1000454D502074726967676572656400544859
:102C200045524D414C2052554E4157415900546830
:102C300065726D616C2052756E61776179000A0A68
:102C40000020205A5F4D494E3A002020595F4D49DF
:102C50004E3A002020585F4D494E3A00202F002068
:102C600042403A0020403A0020573A0020573A00AC
:102C70002053004D31303620500070012C0190015E
:102C80002701B0012201C0011D01F001180110024D
:102C9000130130020E016002090190020401C0021A
:102CA000FF000003FA004003F5008003F000D003AA
:102CB000EB002004E6007004E100E004DC004005C5
:102CC000D700C005D2004006CD00D006C80080075E
:102CD000C3003008BE00F008B900C009B400B00A53
:102CE000AF00B00BAA00D00CA500000EA000500F42
:102CF0009B00C01096005012910000148C00C0156B
:102D00008700B0178200B0197D00D01B7800001E2C
:102D1000730040206E0090226900F0246400402778
:102D20005F0090295A00E02B5500102E50002030F3
:102D30004B0010324600E033410090353C00103724
:102D4000370070383200A0392D00B03A2800A03B7F
:102D50002300603C1E00103D1900903D1400103E01
:102D60000F00703E0A00C03E0500003F0000403FDB
:102D7000FBFF803FF6FFC03FF1FF2020506C616EEB
:102D80006E657242756666657242797465733A2043
:102D9000002046726565204D656D6F72793A20009E
:102DA00020436F6D70696C65643A204A616E202023
:102DB0003820323032320A00204C61737420557052
:102DC00064617465643A20323032312D30392D30EF
:102DD00033207C20417574686F723A204D6F6C69A6
:102DE000736520322E340A004D61726C696E203298
:102DF0002E302E392E320A0020536F66747761729E
:102E0000652052657365740A0020576174636864B5
:102E10006F672052657365740A002042726F776E87
:102E2000206F75742052657365740A0020457874AC
:102E300065726E616C2052657365740A00506F771D
:102E4000657255700A0073746172740A00205A3AF0
:102E50000020593A0020583A00656E6473746F7010
:102E600073206869743A20000000210024002700C4
:102E70002A002D0030003300010100000401070189
:102E80000A01000020002300260029002C002F004A
:102E900032000001000003010601090100000A0BD5
:102EA00002090C0D0E0807030401000000000000D9
:102EB0000000000000000000000000000000000012
:102EC00000000000000000001211100000000000CF
:102ED00000000000000000000000000000000000F2
:102EE0000000FFFFFF290A005D005B002C20002C82
:102EF00020002E2E2E2800646F5F686F6D696E674C
:102F00005F6D6F7665002044697363726570616EF2
:102F100063793A00326E642050726F6265205A3ACB
:102F200000534C4F57003173742050726F6265200C
:102F30005A3A00464153540050726F62653A3A72F1
:102F4000756E5F7A5F70726F62650050726F626952
:102F50006E67204661696C65640A0050726F626931
:102F60006E67204661696C656400205A3A20002033
:102F7000593A200042656420583A2000506F736926
:102F800074696F6E204E6F74205265616368616270
:102F90006C650A00203A200A002020637572726571
:102FA0006E745F706F736974696F6E3D005F7265F8
:102FB0006C6174697665290A002C20002C20002C95
:102FC00020002C20002E2E2E280050726F62653AB1
:102FD0003A70726F62655F61745F706F696E7400E2
:102FE00050726F62653A3A70726F62655F646F77B4
:102FF0006E5F746F5F7A00205472696767657265EF
:1030000064206561726C792E00204E6F20747269A5
:10301000676765722E002050726F62652066616975
:103020006C21202D0053656E64204D3130382074A2
:103030006F20726573756D650A00496E73657274F1
:103040002066696C616D656E7420616E64207365C5
:103050006E64204D3130380A005265686561742015
:10306000446F6E6500526568656174696E672E2EE7
:103070002E00526568656174004865617465722050
:1030800054696D656F75740053656E64204D313001
:103090003820746F2068656174206E6F7A7A6C6571
:1030A0000A004E6F7A7A6C65205061726B6564001D
:1030B00073686F7700627574746F6E00626567691C
:1030C0006E0050757267654D6F7265005061757363
:1030D000656400436F6E74696E7565004C6F616462
:1030E0002046696C616D656E74205400496E73658D
:1030F00072742066696C616D656E7420616E642007
:1031000073656E64204D3130380A00DB0FC93F45CE
:10311000BCDA3F8FB30240FCF0274056946140FE7A
:103120004B9B4084A5D840E0231841346A5641E8BF
:1031300059974164DBD5416E271742B4B75542CE4B
:103140001A9742C8AED542B5885A43D40684BFA662
:103150005FA7BF7443E0BF10B11AC01C2C58C0E871
:10316000F697C0B849D6C04E4E17C124D355C1807A
:103170002497C1A0B5D5C1121A17C244AE55C27862
:103180001797C26CACD5C267885AC320746F6F2082
:103190006C6F6E6720657874727573696F6E2070DE
:1031A000726576656E7465640A0020636F6C6420D6
:1031B000657874727573696F6E2070726576656E6E
:1031C0007465640A00496E76616C69642065787480
:1031D00072756465720A00220A00556E6B6E6F7715
:1031E0006E20636F6D6D616E643A20220020450091
:1031F000205A0020590020204D39322058005374A5
:103200006570732070657220756E69740045727206
:103210006F722077726974696E6720746F204545FC
:1032200050524F4D210A00706F7765726F666600CD
:103230005072696E7465722068616C7465642E20CA
:103240006B696C6C28292063616C6C6564210A00D1
:1032500001021020200808102040102040800201A8
:10326000020108040201010204081020408080408D
:10327000201008040201800402018040201008048C
:10328000020108040201010204081020408001022A
:1032900004081020408000002200250028002B0098
:1032A0002E003100340002010000050108010B016D
:1032B00005050505070508080808020202020A0AB2
:1032C00008080404040401010101010101010303D0
:1032D000030303030303040707070C0C0C0C0C0C7B
:1032E0000C0C0202020206060606060606060B0B78
:1032F0000B0B0B0B0B0B7AD132D111241FBECFEF6E
:10330000D1E2DEBFCDBF00E00CBF14E0A0E0B2E030
:10331000E8E0FDEC01E00BBF02C007900D92AE3E6D
:10332000B107D9F725E1AEEEB4E001C01D92A13D91
:10333000B207E1F719E1CCE7D9E100E006C0219737
:103340000109802FFE010E9452E3CB37D10780E0B4
:103350000807A9F70E9450D20C9473E60C94000061
:103360009F92AF92BF92CF92DF92EF92FF920F9314
:103370001F93CF93DF9300D01F921F92CDB7DEB77C
:10338000EDE1F0E20027BB27462F572FA82FAA23F5
:1033900041F4A52F542FB85FAA2319F4A52F552760
:1033A000B85FA03138F45295A295452F4F70507FE9
:1033B000A42BBC5FA03428F4550FAA1F550FAA1FD9
:1033C000BE5FA03818F4550FAA1FB395550FAA1F5A
:1033D000EA0FF01F449151E0AA27B85079F1C0F0EC
:1033E000B0FF02C0440F551FB1FF04C0440F551F6A
:1033F000440F551FB2FF06C052954295142F1F70FF
:10340000407F512BB3FF1AC0A52F542F442716C05D
:10341000B195B0FF02C055954795B1FF04C05595D1
:10342000479555954795B2FF05C05295407F429507
:10343000452B5F70B3FF02C0452F5527DD24CC24F8
:10344000BB24B2E0649FD018C108B00AB00B749FCF
:10345000C018B108B00B849FB018B109659FC0189F
:10346000B108B00B759FB018B109859FB0196A9F5C
:10347000B018B1097A9FB0194D9DA12C992433271A
:10348000992722275D9DA00C911C301F901F201FA3
:10349000AD9D900C311D901F201F4C9DA00C911CC8
:1034A000301F901F201F5C9D900C311D901F201F0E
:1034B000AC9D300D911D201F4B9D900C311D901F18
:1034C000201F5B9D300D911D201FAB9D900D211D78
:1034D0004B9F300D911D201F5B9F900D211DAB9FB9
:1034E000200DB1E0BB24CC24DD24639FD018C1089B
:1034F000B00AB00B739FC018B108B00B839FB0180F
:10350000B109699FC018B108B00B799FB018B10913
:10351000899FB019629FB018B109729FB019D61A6D
:10352000C70AB80A20F0B1E03B0F901F201F1124FA
:10353000792F632F90E0822F0F900F900F900F90B4
:103540000F90DF91CF911F910F91FF90EF90DF903F
:10355000CF90BF90AF909F900895AF92BF92CF92BF
:10356000DF92EF92FF920F931F93CF93DF93CFE100
:10357000D3E104E118E08FE2A82E83E1B82EC12C3C
:10358000D12C7601C39469917991899199910E9486
:10359000BBDC288939894A895B890E941CDD0E942D
:1035A000B6E4F80161937193819391938F01C616EC
:1035B000D706E806F90610F46B017C01AC16BD06CF
:1035C00011F76FEF7FEFCB01A70196010E94E1E2B7
:1035D0002093240830932508409326085093270809
:1035E000DF91CF911F910F91FF90EF90DF90CF90DF
:1035F000BF90AF900895CF92DF92EF92FF928091AB
:10360000EA06882309F457C0C090E606D090E70682
:10361000E090E806F090E90620E030E0A901C7015B
:10362000B6010E94B7DC882309F445C020E030E0F1
:1036300040E05FE3C701B6010E941CDD9B01AC01C5
:103640000E941CDD2BED3FE049E450E40E941CDDAC
:103650009B01AC0160E070E080E89FE30E9449E4D8
:103660006B017C01C092CD06D092CE06E092CF06CF
:10367000F092D00660912B0270912C02072E000C64
:10368000880B990B0E94BDDC2AE037ED43E25CE336
:103690000E941CDDA70196010E941CDD6093F003CF
:1036A0007093F1038093F2039093F303FF90EF90F4
:1036B000DF90CF900895C12CD12C80E8E82E8FE3C5
:1036C000F82ED0CF0F931F93E62FDC01FC910F2F24
:1036D00010E030E020E0062E04C0369527951795BF
:1036E00007950A94D2F700FF1CC00091BE0610E0B7
:1036F00030E020E004C036952795179507956A9528
:10370000D2F700FF0EC041E050E060E070E004C07E
:10371000440F551F661F771FEA95D2F740954F2338
:103720004C931F910F910895CF93DF931F92CDB7C4
:10373000DEB7898360E0CE010196C4DF61E0CE018F
:103740000196C0DF62E0CE010196BCDF89810F9057
:10375000DF91CF9108958F929F92AF92BF92CF92B7
:10376000DF92EF92FF92CF93DF9320912F022223DB
:1037700009F49EC0EC018091BE06C82ED12CF12C1C
:10378000E12C80FF2CC08090310290903202A090FA
:103790003302B0903402288139814A815B81C501AE
:1037A000B4010E9494E5181624F488829982AA82B2
:1037B000BB8280903D0290903E02A0903F02B0906C
:1037C0004002288139814A815B81C501B4010E9490
:1037D000B7DC87FF04C088829982AA82BB82D701A6
:1037E000C601B695A7959795879580FF2CC08090C8
:1037F000350290903602A0903702B09038022C81AA
:103800003D814E815F81C501B4010E9494E5181687
:1038100024F48C829D82AE82BF828090410290907F
:103820004202A0904302B09044022C813D814E811F
:103830005F81C501B4010E94B7DC87FF04C08C82A0
:103840009D82AE82BF8282E0F694E794D794C794BB
:103850008A95D1F7C0FE2CC0C0903902D0903A02B0
:10386000E0903B02F0903C02288539854A855B85D3
:10387000C701B6010E9494E5181624F4C886D986BB
:10388000EA86FB86C0904502D0904602E09047024F
:10389000F0904802288539854A855B85C701B601C5
:1038A0000E94B7DC87FF04C0C886D986EA86FB86FB
:1038B000DF91CF91FF90EF90DF90CF90BF90AF90CE
:1038C0009F908F9008958091BA069091BB06A09129
:1038D000BC06B091BD068093270290932802A09366
:1038E0002902B0932A028091B8069091B90690936C
:1038F0002602809325020895809127029091280244
:10390000A0912902B0912A028093BA069093BB0637
:10391000A093BC06B093BD0680912502909126022B
:103920009093B9068093B80684E690E090932602BF
:1039300080932502089587FD26C0811111C08091D2
:10394000F8132091F9138217F1F0E22FF0E0E8501C
:10395000FC4E828190E02F5F2F772093F91308951A
:10396000813089F48091761320917713821759F072
:10397000E22FF0E0EA58FC4E828190E02F5F2F7733
:103980002093771308958FEF9FEF089587FD11C05F
:10399000811108C08091F8139091F913891B8F77DA
:1039A00090E00895813029F48091761390917713F7
:1039B000F5CF90E080E0089590E080E00895282F12
:1039C0009091A905833021F495FD0FC094FD0FC09F
:1039D000892F90E0B0E0A0E004C0B695A795979538
:1039E00087952A95D2F78170089581E0089580E047
:1039F00008958091C40584FD0BC08091C60587FDA4
:103A000007C09091C705937081E019F480E0089594
:103A100081E00895082E000C990BFC01E055FD4C47
:103A2000E491EE2391F0F0E0EE0FFF1FEE57F14D21
:103A3000A591B4912C91805B9D4CFC01849128232D
:103A400081E090E021F480E0089580E090E0089526
:103A5000082E000C990BFC01E055FD4CE491F0E0C0
:103A6000EE0FFF1FE859F14DA591B4912C91805BA9
:103A70009D4CFC018491822391E009F490E0892F10
:103A80000895FC0165917591859194910895CF9267
:103A9000DF92EF92FF92CF93DF93EC01CC80DD8039
:103AA000EE80FF8022ED30E040EA50ECC701B60125
:103AB0000E9494E587FD23C023E030E04BE953E406
:103AC000C701B6010E94B7DC1816CCF0C880D980B7
:103AD000EA80FB8023EA31E040E050ECC701B60108
:103AE0000E9494E587FD0BC0C1E023E030E046E989
:103AF00053E4C701B6010E94B7DC18160CF4C0E00D
:103B00008C2FDF91CF91FF90EF90DF90CF900895B1
:103B10002FEB280F2A3108F047C0E22FF0E0809108
:103B2000C4059091C505A091C605B091C70504C014
:103B3000B695A795979587952A95D2F780FD02C0EF
:103B400081700895E655FA4FE081EE2341F18091AE
:103B50001D1390911E13E80FF92FF11D808190ED38
:103B6000980F9A3030F08E3251F4818180538A3030
:103B700098F4F093A205E093A10581E008958D32B9
:103B800011F08B3249F4818190ED980F9A3088F3CF
:103B90008E3211F48281EACFF0E0E0E0EACF1092B9
:103BA000A2051092A105E9CF80E00895B1DF882336
:103BB00041F081E02091A1053091A205232B09F469
:103BC00080E0089590910C0810920C08913019F043
:103BD000923069F00895882319F0813021F008951A
:103BE00090930D08089582E080930D080895109237
:103BF0000E0808958F929F92AF92BF92CF92DF925C
:103C0000EF92FF92C0905707D0905807E090590765
:103C1000F0905A0720E030E0A901C701B6010E94E8
:103C2000B7DC8823E1F1A701960160E070E080E84D
:103C30009FE30E9449E46B017C0180905B079090B8
:103C40005C07A0905D07B0905E0720E030E0A9011E
:103C5000C501B4010E94B7DC882329F1A5019401B4
:103C600060E070E080E89FE30E9449E4C09279053B
:103C7000D0927A05E0927B05F0927C0560937D05F9
:103C800070937E0580937F0590938005FF90EF9061
:103C9000DF90CF90BF90AF909F908F900895C12CF0
:103CA000D12C7601CACF60E070E0CB01DFCF8F92DC
:103CB0009F92AF92BF92CF92DF92EF92FF92CF93FB
:103CC000DF93EC018090701390907113A0907213A9
:103CD000B090731320E030E0A901C501B4010E9447
:103CE000B7DC882309F454C0C880D980EA80FB80FF
:103CF000A7019601C501B4010E94B7DC18160CF0AB
:103D00004CC0209167133091681340916913509112
:103D10006A13C701B6010E94B7DC882331F1C09253
:103D20006713D0926813E0926913F0926A1320919E
:103D30006B1330916C1340916D1350916E13688129
:103D400079818A819B810E941CDD9B01AC0160E02E
:103D500070E080E89FE30E946CE360930002709340
:103D6000010280930202909303026091000270911D
:103D700001028091020290910302DF91CF91FF90A6
:103D8000EF90DF90CF90BF90AF909F908F9008956D
:103D900060E070E080E89FE3F0CF60E070E0CB018E
:103DA000ECCFEEE0F5E09491981739F0319695E07C
:103DB000E932F907C1F780E0089581E00895409164
:103DC000630721E042276CE070E00C948D9D4091E8
:103DD000630721E0422764E070E00C948D9D4091E0
:103DE000630721E0422761E070E00C948D9D4091D3
:103DF000630721E0422761E070E00C948D9D4091C3
:103E0000630721E0422768E070E00C948D9D4091AB
:103E1000630721E042276CE070E00C948D9D41E047
:103E200061E070E00C948D9D4091630721E0422792
:103E30000C948D9D6CE070E00C9408A464E070E03C
:103E40000C9408A461E070E00C9408A461E070E0B8
:103E50000C9408A46CE070E00C9408A4CF93DF935A
:103E6000EC01C43081E0D80714F0C4E0D1E0D09375
:103E7000A507C093A4076091A0077091A107809146
:103E8000A2079091A3070E94B1E4CB01BE01DF918C
:103E9000CF910C94ADA40F931F93CF93DF9303E3C3
:103EA00013E1C9E2D8E0F80121913191419151919A
:103EB0008F0160E070E080E89FE30E9449E469932D
:103EC000799389939993F8E0C933DF0761F70E94EA
:103ED000699DDF91CF911F910F913FCB4F925F92E0
:103EE0006F927F928F929F92AF92BF92CF92DF920A
:103EF000EF92FF920F931F93CF93DF93EC012091EA
:103F00004F073091500740915107509152076881F7
:103F100079818A819B810E946CE36B017C012091F5
:103F200053073091540740915507509156076C81C3
:103F30007D818E819F810E946CE34B015C01A70112
:103F4000960160910602709107028091080290919B
:103F500009020E94B7DC882309F450C0C09206020F
:103F6000D0920702E0920802F092090220917905AE
:103F700030917A0540917B0550917C05C701B601CF
:103F80000E941CDD2B013C010E94E2E46B017C01DC
:103F900020E030E0A9010E94B7DC87FD70C020E07E
:103FA00030E040E450E4C701B6010E9494E51816E1
:103FB0002CF4C12CD12CC0E4EC2EFE2CA7019601D0
:103FC000C301B2010E946CE36093710570937205A6
:103FD0008093730590937405C701B6010E94B1E404
:103FE00060936F05062E000C770B6F5F7F4F643078
:103FF000710514F064E070E060936D05D0910402E7
:1040000010916F05A501940160910A0270910B0255
:1040100080910C0290910D020E94B7DC811133C097
:10402000D11381C020915505309156054091570517
:1040300050915805609171057091720580917305DA
:10404000909174050E941CDD2091590530915A050C
:1040500040915B0550915C050E946DE3DF91CF912B
:104060001F910F91FF90EF90DF90CF90BF90AF9096
:104070009F908F907F906F905F904F900895C12C8C
:10408000D12C76019BCF80920A0290920B02A092D3
:104090000C02B0920D0220917D0530917E05409179
:1040A0007F0550918005C501B4010E941CDD4B01C4
:1040B0005C010E94E2E46B017C0120E030E0A90198
:1040C0000E94B7DC87FDF3C020E030E040E450E41C
:1040D000C701B6010E9494E518162CF4C12CD12C0E
:1040E000B0E4EB2EFE2CA7019601C501B4010E949D
:1040F0006CE36093750570937605809377059093D4
:104100007805C701B6010E94B1E460937005062EE0
:10411000000C770B6F5F7F4F6430710514F064E023
:1041200070E060936E05C0917005D11305C0809159
:1041300005028C1709F470C080916F05909170058D
:1041400090930502809304020C2E000CDD0B25E0F9
:104150001203C0011124FC01EC0FFD1FEE0FFF1F25
:10416000EE0FFF1FE551F94F2081318142815381CC
:104170002093690530936A0540936B0550936C0555
:1041800000916E05002E000C110BFC01E00FF11FD9
:10419000EE0FFF1FEE0FFF1FE551F94F6081718198
:1041A000828193810E946CE360936505709366053C
:1041B000809367059093680520916D0535E0230392
:1041C000F0011124CE0FDF1FCC0FDD1FCC0FDD1F40
:1041D000C551D94F288139814A815B81209361057E
:1041E000309362054093630550936405E00FF11F1F
:1041F000EE0FFF1FEE0FFF1FE551F94F6081718138
:10420000828193810E946CE360935D0570935E05EB
:1042100080935F059093600580907505909076057A
:10422000A0907705B09078052091650530916605DE
:104230004091670550916805C501B4010E941CDDDD
:104240002091690530916A0540916B0550916C058C
:104250000E946DE36B017C01C0925905D0925A0512
:10426000E0925B05F0925C0520915D0530915E0562
:1042700040915F0550916005C501B4010E941CDDAD
:10428000209161053091620540916305509164056C
:104290000E946DE3A70196010E946CE360935505AF
:1042A000709356058093570590935805BBCEC12C4B
:1042B000D12C760118CFCF92DF92EF92FF92CF935D
:1042C000DF9320916F13222319F1EC010896EFDCA4
:1042D0006B017C0120E030E0A9010E94B7DC20E006
:1042E00030E0A901882351F0CE01F8DD9B01AC013B
:1042F000C701B6010E941CDD9B01AC016885798570
:104300008A859B850E946CE3688779878A879B876B
:10431000DF91CF91FF90EF90DF90CF90089520E054
:1043200030E0A901BC0184EF93E00C9451C60F93D7
:104330001F938091A706813019F50E94A1A40091D6
:104340009F061091A0062091A1063091A206601B45
:10435000710B820B930B28EE33E040E050E00E949B
:10436000E1E260919B0670919C0680919D06909180
:104370009E06620F731F841F951F1F910F91089552
:104380006091A3067091A4068091A5069091A6065F
:10439000D6CF8091A706813079F482E08093A7067A
:1043A0000E94A1A46093A3067093A4068093A5061F
:1043B0009093A60681E0089580E00895BC01990FCE
:1043C000880B990B0C94CD9C63E00C9437A18091E1
:1043D000A1059091A205009731F04AE050E070E00D
:1043E00060E00C9422DB60E070E0CB0108958091E6
:1043F000A1059091A205009731F04AE050E070E0ED
:1044000060E00C94F6D960E070E0CB010895EFDF36
:1044100097FD0AC0ECDF6F3F71058105910509F03A
:104420002CF4E5DF862F089580E008958FEF08953E
:10443000CF93C62FBBDB882311F0CF91E8CF8C2F11
:10444000CF9108958091A1059091A205892B39F013
:10445000DEDF91E0811101C090E0892F089591E0A5
:10446000FCCFCF93DF93C82FD62FA0DB882319F082
:10447000DF91CF91E7CF8C2F4BDB811101C08D2FC6
:10448000DF91CF910895B3DFCB010895CF93DF93F0
:10449000EB018CDB882319F0DF91CF91F4CFCE01B3
:1044A000DF91CF9108950F931F93CF938091A10532
:1044B0009091A2050097E9F0FC018F01C1912C2F8A
:1044C0002F7D81F0C53411F0C536B9F7F80110829F
:1044D00070E060E00E94A0D8F801C083CF911F91E6
:1044E0000F91089570E060E0CF911F910F910C94AF
:1044F000A0D860E070E0CB01F1CFCF92DF92EF92D5
:10450000FF926A017B0152DB882329F0FF90EF9034
:10451000DF90CF90C8CFC701B601FF90EF90DF903A
:10452000CF9008958F929F92AF92BF92CF92DF92D9
:10453000EF92FF920F931F93CF9384EEE82E87E0C4
:10454000F82E04EF13E095EFC92E97E0D92EC0E0C6
:1045500088E58C0F2BDB882309F474C0A4DF4B01A2
:104560005C018C2F2CDA882309F462C0F8012081C9
:10457000318142815381C501B4010E946DE3F7018D
:104580006083718382839383CF5FF4E0EF0EF11C2D
:104590000C5F1F4F84E0C80ED11CC330C9F685E400
:1045A00005DB882309F459C07EDF6B017C0183E0C1
:1045B00006DA882371F020910004309101044091C3
:1045C000020450910304C701B6010E946DE36B0120
:1045D0007C01C092F007D092F107E092F207F092CE
:1045E000F30740E050E0BA0186E487DF20E030E0E6
:1045F000A9010E9494E518167CF455DF20E030E014
:1046000040E752E40E9449E4609327027093280235
:104610008093290290932A02CF911F910F91FF90CE
:10462000EF90DF90CF90BF90AF909F908F900895C4
:10463000F6012081318142815381C501B4010E947C
:104640006CE39DCFF80180819181A281B381F70154
:1046500080839183A283B38397CF8091000490914C
:104660000104A0910204B09103048093F007909399
:10467000F107A093F207B093F307B3CF282F81304F
:10468000A1F08230A1F05F9881E090E0A0E0B0E07E
:1046900004C0880F991FAA1FBB1F2A95D2F720912B
:1046A0006507822B8093650708958A98EDCF8091E6
:1046B00008018170809306014798E6CFCF93DF937E
:1046C0008091D106811119C0C0912D02D0912E0286
:1046D000219720E030E040E05FE36091A007709117
:1046E000A1078091A2079091A3070E946DE30E9409
:1046F000B1E421E06C177D070CF020E0822FDF9100
:10470000CF910895CF92DF92EF92FF92CF93DF93F4
:1047100020916F13222319F1EC010896C8DA6B017E
:104720007C0120E030E0A9010E94B7DC20E030E00D
:10473000A901882351F0CE01D1DB9B01AC01C70157
:10474000B6010E941CDD9B01AC01688579858A85D4
:104750009B850E946DE3688779878A879B87DF91B5
:10476000CF91FF90EF90DF90CF9008952F923F92DE
:104770004F925F926F927F928F929F92AF92BF9271
:10478000CF92DF92EF92FF920F931F93CF93DF931D
:10479000CDB7DEB76C970FB6F894DEBF0FBECDBFB6
:1047A0008C015B015A834983FC01EA5BFF4F208146
:1047B00031814281538129873A874B875C87CA01BF
:1047C000B9010E94BBDC6B017C01D5012D913D91AB
:1047D0004D915C910E941CDD0E9433E42B013C0151
:1047E000E981FA812081318142815381C701B6017B
:1047F0000E941CDD0E9433E44B015C01C301B20145
:104800000E94B6E4698B7A8B8B8B9C8B6837710521
:104810008105910540F428E730E040E050E0298B25
:104820003A8B4B8B5C8BC501B4010E94B6E46D875B
:104830007E878F87988B683771058105910540F4D5
:1048400048E750E060E070E04D875E876F87788BC7
:10485000F801EE5AFF4F4080518062807380C3019F
:10486000B2010E94BDDC69837A838B839C83698952
:104870007A898B899C890E94BBDC6D8B7E8B8F8BA8
:10488000988F20E030E0A90169817A818B819C8139
:104890000E94B7DC882309F4E1C1A7019601C70192
:1048A000B6010E941CDD4B015C012D893E894F89B8
:1048B000588DCA01B9010E941CDD9B01AC01C501E4
:1048C000B4010E946CE34B015C0129813A814B8168
:1048D0005C81CA01B9010E946DE39B01AC01C50175
:1048E000B4010E9449E40E9433E40E94B6E46D835F
:1048F0007E838F83988766277727CB016419750994
:10490000860997090E94BDDC4B015C016D857E859F
:104910008F8598890E94BBDC2B013C0120E030E0B0
:10492000A901C501B4010E94B7DC882309F49AC12A
:10493000A3019201C301B2010E941CDD698F7A8F2D
:104940008B8F9C8FA7019601C701B6010E941CDDC9
:104950009B01AC01698D7A8D8B8D9C8D0E946CE3DF
:104960006B017C01A5019401C501B4010E946DE3B6
:104970009B01AC01C701B6010E9449E40E94E2E438
:10498000D80195968D909D90AD90BC9098977501AB
:1049900064012D813E814F815885C21AD30AE40AF1
:1049A000F50A0E94B6E4C61AD70AE80AF90AF7FE21
:1049B0008EC02D893E894F89588DCA01B9010E9448
:1049C0001CDD6B017C0129813A814B815C81CA012C
:1049D000B9010E946DE369877A878B879C8720E005
:1049E00030E0A90169817A818B819C810E94B7DCCA
:1049F000882309F43BC1C501B4010E94BBDC2985B1
:104A00003A854B855C850E941CDDA70196010E94BA
:104A10006CE36D837E838F839887A3019201C3012A
:104A2000B2010E941CDD9B01AC016D817E818F81F2
:104A300098850E946DE32B013C0120E030E040E8C6
:104A400050E469817A818B819C810E941CDD9B01ED
:104A5000AC01C301B2010E9449E40E9433E42B017E
:104A60003C0120E030E0A9010E9494E518161CF0FA
:104A7000412C512C3201C301B2010E94B6E46D8376
:104A80007E838F83988786169706A806B90620F43A
:104A90008D829E82AF82B8866D817E818F8198855E
:104AA0000E94BBDC29853A854B855C850E941CDD14
:104AB000A70196010E946DE30E94DAE50E94B6E428
:104AC00069877A878B879C87C12CD12C7601698571
:104AD0007A858B859C8529893A894B895C89621BFB
:104AE000730B840B950B0E94BBDC29813A814B81AF
:104AF0005C810E9449E420E034E244EF59E40E94E2
:104B00001CDD0E94B6E44B015C0169857A858B85CA
:104B10009C852D853E854F855889621B730B840BC0
:104B2000950B0E94BBDC29813A814B815C810E94FC
:104B300049E420E034E244EF59E40E941CDD0E9485
:104B4000B6E42B013C013FE683169104A104B104B5
:104B500008F090C0F401EE0FFF1FEE0FFF1FEF599A
:104B6000F14E85919591A591B4918983292E3A2E84
:104B7000BD8B4FE6441651046104710408F083C0F4
:104B8000F201EE0FFF1FEE0FFF1FEF59F14E45919F
:104B90005591659174919A01CB014D815E816F8130
:104BA0007885D80199964D935D936D937C939C97EE
:104BB0004C0D5D1D6E1D7F1DF80145A756A767A70B
:104BC00070ABE65BFF4F49895A896B897C894083CA
:104BD000518362837383D5968D929D92AD92BC92E0
:104BE000D897F80141AE52AE63AE74AEFD964981DE
:104BF0004083218232825D895383349620833183BE
:104C00008283938369857A858B859C85D1966D9304
:104C10007D938D939C93D4973D962D853E854F85AE
:104C2000588920833183428353836C960FB6F8945E
:104C3000DEBF0FBECDBFDF91CF911F910F91FF90CF
:104C4000EF90DF90CF90BF90AF909F908F907F902C
:104C50006F905F904F903F902F90089560E070E0CC
:104C6000CB0141CE60E070E0CB0188CE60E070E027
:104C7000CB01F3CEC501B4010E94B0196983272E80
:104C8000382E9D8B76CFC301B2010E94B0199B01D3
:104C900084CF8091991490919A14891B8F7119F483
:104CA00090E080E0089590919614992351F083301C
:104CB00030F48FEF890F19F080939614F1CF109292
:104CC000961480919A1427E5829FC0011124855C77
:104CD000974FFC01208120FDE3CF20919A142F5F94
:104CE0002F712093971430919A14209198143213B5
:104CF00004C02091971420939814089590916F0008
:104D000081E091FD02C080E0089590916F009D7F49
:104D100090936F0008958091AB0665996EC0816095
:104D20008093AB06909103018091AB0691FD67C023
:104D300082608093AB068091AB064B9B62C084601F
:104D40008093AB068091AB069091AA06981709F460
:104D50005AC092E09093A9068093AA068091D40746
:104D6000811105C08091D607882309F459C080912C
:104D7000700780FF10C08091D50780FF0CC0809124
:104D8000A80680FF08C08091010881608093010817
:104D900080E00E94FCAB80917007869580FF11C077
:104DA0008091D507869580FF0CC08091A80681FF71
:104DB00008C08091010882608093010881E00E9410
:104DC000FCAB809170078695869580FF29C0809105
:104DD000D5078695869580FF23C08091D6078823C6
:104DE000F9F08091A80682FF1BC0809101088460C1
:104DF0008093010882E00C94FCAB8E7F91CF8D7F75
:104E000098CF8B7F9DCF8091A906882309F4A6CFE8
:104E100081508093A9068111A1CF9093A8069ECFBF
:104E2000089580910108882319F0109201080895CF
:104E300060E081ED9BE10E94C2C61092A70610922D
:104E40009F061092A0061092A1061092A206109240
:104E5000A3061092A4061092A5061092A606109220
:104E60009B0610929C0610929D0610929E06089535
:104E70008091A7068130E1F08230C1F458DA609366
:104E80009B0670939C0680939D0690939E0681E0FE
:104E90008093A7060E94A1A460939F067093A0062A
:104EA0008093A1069093A20681E00895C6DFEFCF1C
:104EB00080E008958091A7068150823070F41092AE
:104EC000A7060E94A1A46093A3067093A4068093F2
:104ED000A5069093A60681E0089580E008958F923C
:104EE0009F92AF92BF92CF92DF92EF92FF920F9379
:104EF0001F93CF93DF931092C9051092C8052FE33B
:104F00002093CC051092CB051092CA051092C405CF
:104F10001092C5051092C6051092C7059C01F901B3
:104F200090812F5F3F4F9032D1F39E34C9F481813D
:104F300090ED980F9A3020F08D3211F08B3281F481
:104F400032969F012F5F3F4F808180538A3008F453
:104F50006BC09F012F5F3F4F8081803209F466C094
:104F6000F0931E13E0931D138F010F5F1F4FC0813D
:104F70006AE270E0C8010E9448E6009731F0FC0147
:104F8000319780818032E1F31182CD3421F0C43534
:104F900011F0C734E1F5F80180810F5F1F4F8032B7
:104FA000D1F380538A3098F5C093CC0530E020E0EF
:104FB0006AE0AF014F5F5F4F629FC001639F900D3A
:104FC00011249C01205331098081280F311D87FD58
:104FD0003A95FA01808180538A3058F33093CB059B
:104FE0002093CA05DF0131968C918032D9F3CD34FC
:104FF00049F52E31310539F0D8F42731310519F052
:105000002C313105F9F4B093C905A093C805DF919F
:10501000CF911F910F91FF90EF90DF90CF90BF90B5
:10502000AF909F908F900895F9018BCFF90191CFA8
:105030002537310538F02737310528F3203A83E04A
:10504000380709F3D0911D1340E050E0BA0110E099
:1050500000E0C12CD12C7601C394FD0131968C91D6
:10506000882309F47FC08132E1F4CD34D1F42032B9
:105070003105B9F44093C4055093C5056093C60546
:105080007093C705F093C905E093C80563E270E02B
:10509000CF010E9448E6009709F4B9CFFC011082C5
:1050A000B6CF81548A3108F058C0DF019D9190320B
:1050B00091F0A0EDA90FAA30E8F09E3271F4918131
:1050C00090539A30B8F00115110519F48F01015071
:1050D000110990E013C0FD01E8CF9D3211F09B3221
:1050E00091F79181A0EDA90FAA3020F09E3259F7D7
:1050F0009281E6CF9E2F9D1B309759F3A82FB0E0E9
:105100004601570104C0880C991CAA1CBB1C8A9537
:10511000D2F7482959296A297B29A655BA4F9C9369
:1051200080818154DF018A3108F497CFDF018191BA
:10513000882309F492CF90ED980F9A30B8F393ED4D
:10514000980F923098F38B3289F3CD010196EC9150
:10515000E03209F082CFDC01F8CF0115110501F72B
:105160008D01DECF1093C9050093C8054093C40597
:105170005093C5056093C6057093C70548CF0C943E
:10518000CD9C4F925F926F927F928F929F92AF923F
:10519000BF92CF92DF92EF92FF92CF93DF9300D036
:1051A00000D01F921F92CDB7DEB75C01DB01CD901E
:1051B000DD90ED90FC90E0919414F0919514FE83B5
:1051C000ED8384819581A681B78189839A83AB839E
:1051D000BC839C01AD01C701B6010E946CE32B01A9
:1051E0003C01F50180809180A280B380AD81BE81B9
:1051F0008D919D910D90BC91A02D8D839E83AF8349
:10520000B88722ED30E040EA50ECC301B2010E94C1
:1052100094E587FDD3C023E030E04BE953E4C301BC
:10522000B2010E94B7DC18160CF4C8C02D813E8173
:105230004F815885C501B4010E946CE32B013C01EC
:1052400023EA31E040E050EC0E9494E587FDB6C0CF
:1052500023E030E046E953E4C301B2010E94B7DC29
:1052600018160CF4ABC020E030E040E050E46D8153
:105270007E818F8198850E946CE32B013C0120E0A8
:1052800030E040E251E40E94B7DC87FF06C0412CC9
:10529000512C30E2632E31E4732E27E137EB41EDE0
:1052A00058E3C301B2010E946CE39B01AC01C5014C
:1052B000B4010E9494E587FD81C020E030E046E91A
:1052C00053E46D817E818F8198850E946DE32B016F
:1052D0003C0120E030E041E953E40E9494E51816D7
:1052E00034F4412C512C21E9622E23E4722E27E163
:1052F00037EB41ED58E3C301B2010E946DE39B011E
:10530000AC01C501B4010E94B7DC18160CF456C0FC
:1053100020E030E040EA50E469817A818B819C8111
:105320000E946CE34B015C0120E030E040E251E47C
:105330000E94B7DC87FF06C0812C912C90E2A92E39
:1053400091E4B92E27E137EB41ED58E3C501B401F3
:105350000E946CE39B01AC01C701B6010E9494E579
:1053600087FD2CC020E030E04BE953E469817A816D
:105370008B819C810E946DE34B015C0120E030E059
:1053800046E953E40E9494E5181634F4812C912CDC
:1053900086E9A82E83E4B82E27E137EB41ED58E3E8
:1053A000C501B4010E946DE39B01AC01B1E0B9837A
:1053B000C701B6010E94B7DC18160CF41982898166
:1053C00028960FB6F894DEBF0FBECDBFDF91CF9108
:1053D000FF90EF90DF90CF90BF90AF909F908F9015
:1053E0007F906F905F904F900895CF93DF93C0911F
:1053F000C107D091C207209729F16091BD07709134
:10540000BE078091BF079091C0070E94B1E46E5F14
:105410007F4F24976C177D07ACF470938F076093D0
:105420008E070E94A1A4605A75418F4F9F4F6093D1
:105430009007709391078093920790939307DF9161
:10544000CF910895109290071092910710929207B1
:1054500010929307F4CFCF93DF93ECE9F7E0C08588
:10546000D18564817581868197810E94B1E4CB01E9
:10547000BE01DF91CF910C94ADA4843021E092075E
:1054800014F084E091E09093A5078093A407E3CF04
:10549000CF92DF92EF92FF92CF93DF936B017C016B
:1054A000D0E0C0E08091AD149091AE14C817D90738
:1054B00038F4B701A601CE010E945C9F2196F2CF7D
:1054C000DF91CF91FF90EF90DF90CF900C948E9E64
:1054D000CF92DF92EF92FF92CF93DF936B017C012B
:1054E0008091D207D0E0C0E087FD12C0B701A601CD
:1054F000082E000C990B0E945C9F8FEF8093D207BF
:10550000DF91CF91FF90EF90DF90CF900C948E9E23
:105510008091AD149091AE14C817D90788F7B701E0
:10552000A601CE010E945C9F2196F2CFBF92CF923E
:10553000DF92EF92FF920F931F93CF93DF9300D0F0
:105540001F92CDB7DEB78C01B62E8FEF89838A8389
:105550008B838C8344E050E0B801CE0101960E9419
:105560003BE6892B09F43FC0F8018081C180D12C32
:10557000F12CE12CFE2CED2CDC2CCC24E82A8281B1
:10558000C82AF80183810E94C59FBB2091F1B70111
:10559000A60180918105909182050E945C9F0E94E6
:1055A0008E9E80918105909182050196909382054F
:1055B000809381052091AD143091AE14821793072A
:1055C00020F010928205109281050F900F900F909D
:1055D0000F90DF91CF911F910F91FF90EF90DF908F
:1055E000CF90BF900895CC24CA94DC2CEC2CF12CE5
:1055F000C8CFC701B6016CDFF80180819181482FC7
:10560000490F5527551F8281840F952F911D21E049
:10561000833091050CF420E020938D070397ACF2C2
:1056200054E1013C150789F2F80180819181A28142
:10563000B3818093C1149093C214A093C314B09308
:10564000C414C3CF8F929F92AF92BF92CF92DF923A
:10565000EF92FF92CF93DF9300D01F92CDB7DEB7CA
:105660002FEF8417950731F16A01052E000CEE0823
:10567000FF084C01092E000CAA08BB08681779071F
:105680002CF0CB01461757070CF4CA019C01990F67
:10569000440B550B281939094A095B09AFEFB0E0F3
:1056A0000E941FE3A7019601281939094A095B09DD
:1056B0000E9403E38091B407821779F02093B40726
:1056C0008091B31481509FEF99831A8220952B8388
:1056D0008C8361E0CE01019629DF0F900F900F902F
:1056E0000F90DF91CF91FF90EF90DF90CF90BF9020
:1056F000AF909F908F9008958F929F92AF92BF929C
:10570000CF92DF92EF92FF92CF93DF9300D01F9260
:10571000CDB7DEB72FEF8417950731F16A01052E5B
:10572000000CEE08FF084C01092E000CAA08BB086B
:10573000681779072CF0CB01461757070CF4CA01FC
:105740009C01990F440B550B281939094A095B092B
:10575000AFEFB0E00E941FE3A701960128193909B5
:105760004A095B090E9403E38091B407821771F034
:105770002093B4078091B314815029831A829FEF3C
:105780009B838C8361E0CE010196D0DE0F900F9059
:105790000F900F90DF91CF91FF90EF90DF90CF901F
:1057A000BF90AF909F908F900895682F70E090E029
:1057B00080E00C945F9CEFE6F0E080818260808363
:1057C0000895CF92DF92EF92FF92CF93DF93C82F8D
:1057D00095DA94E0C99FE0011124FE01E358F84FE7
:1057E000C080D180E280F3808111E5DFC75DD74FB3
:1057F000C701B6010E94BDDC288139814A815B81E5
:105800000E941CDDDF91CF91FF90EF90DF90CF9051
:105810000895CF93DF9380E0D4DFCCEAD6E06883AD
:1058200079838A839B8381E0CCDF6C837D838E8345
:105830009F8382E0C6DF688779878A879B87DF91AD
:10584000CF9108951F93CF93DF93CDB7DEB76097C5
:105850000FB6F894DEBF0FBECDBF182FDADF1D865E
:105860001E861F86188A8091AC069091AD06A09185
:10587000AE06B091AF0689839A83AB83BC838091D7
:10588000B0069091B106A091B206B091B3068D8397
:105890009E83AF83B8878091B4069091B506A0919E
:1058A000B606B091B70689879A87AB87BC8783E035
:1058B00088DF6D877E878F87988BCE0101960E9447
:1058C0005B211E3F99F480E1FE013196A4EFB3E025
:1058D00001900D928A95E1F760960FB6F894DEBFBD
:1058E0000FBECDBFDF91CF911F91089584E0189F27
:1058F000F0011124DF01AC50BC4F81E090E08C0F2F
:105900009D1FE80FF91F40815181628173814D9382
:105910005D936D937C931397DFCFCF92DF92EF92DD
:10592000FF92CF93DF93C82FE9D994E0C99FE0019C
:105930001124FE01EF58F84FC080D180E280F3803F
:10594000811139DFC75DD74FC701B6010E94BDDCA9
:10595000288139814A815B810E941CDDDF91CF91D2
:10596000FF90EF90DF90CF90089580916A0790911B
:105970006B07892B79F480916A0790916B07892BCB
:1059800049F420916A0730916B0781E0232B19F4C9
:1059900080E0089581E00895CF92DF92EF92FF9228
:1059A0006B017C0183E3C816D104E104F10470F0BB
:1059B00082E3C81AD108E108F10862E370E080E0F0
:1059C00090E00E94D5A30E947AC8ECCFC701B6012F
:1059D0000E94D5A3FF90EF90DF90CF900C947AC8EF
:1059E0008091D407811104C08091D607882329F0C3
:1059F00062E070E080E090E0CFCF0895DC01ED91AF
:105A0000FC91119712968C9180830895DC01129677
:105A10008C91129780FF0FC08091C10085FD1FC03F
:105A20008091C00085FF1BC06093C6008091C000BC
:105A300080648093C00012968C9181FF91C0809108
:105A4000D10085FD4DC08091D00085FF49C0609395
:105A5000D6008091D00080648093D000089520917A
:105A600011052F5F2F710FB607FC27C0809112051B
:105A7000281328C08091C00085FF1EC09091120598
:105A800030911105931306C08091C1008F7D8093E2
:105A9000C10012C0E92FF0E0EF5EFA4F82819F5FF4
:105AA0009F718093C600909312058091C00080641E
:105AB0008093C000391741F3D9CF80911205281384
:105AC00001C0FBCFE0911105F0E0EF5EFA4F628379
:105AD000209311059091C10090629093C100ABCFCB
